{
	"Array2.sol": {
		"StergeElementVectorPrinShiftare": {
			"abi": [
				{
					"inputs": [
						{
							"internalType": "uint256",
							"name": "indexV",
							"type": "uint256"
						}
					],
					"name": "sterge",
					"outputs": [],
					"stateMutability": "nonpayable",
					"type": "function"
				},
				{
					"inputs": [],
					"name": "testare",
					"outputs": [],
					"stateMutability": "nonpayable",
					"type": "function"
				},
				{
					"inputs": [
						{
							"internalType": "uint256",
							"name": "",
							"type": "uint256"
						}
					],
					"name": "vector",
					"outputs": [
						{
							"internalType": "uint256",
							"name": "",
							"type": "uint256"
						}
					],
					"stateMutability": "view",
					"type": "function"
				}
			],
			"devdoc": {
				"kind": "dev",
				"methods": {},
				"version": 1
			},
			"evm": {
				"assembly": "    /* \"Array2.sol\":61:1068  contract StergeElementVectorPrinShiftare... */\n  mstore(0x40, 0x80)\n  callvalue\n  dup1\n  iszero\n  tag_1\n  jumpi\n  0x00\n  dup1\n  revert\ntag_1:\n  pop\n  dataSize(sub_0)\n  dup1\n  dataOffset(sub_0)\n  0x00\n  codecopy\n  0x00\n  return\nstop\n\nsub_0: assembly {\n        /* \"Array2.sol\":61:1068  contract StergeElementVectorPrinShiftare... */\n      mstore(0x40, 0x80)\n      callvalue\n      dup1\n      iszero\n      tag_1\n      jumpi\n      0x00\n      dup1\n      revert\n    tag_1:\n      pop\n      jumpi(tag_2, lt(calldatasize, 0x04))\n      shr(0xe0, calldataload(0x00))\n      dup1\n      0x7c344334\n      eq\n      tag_3\n      jumpi\n      dup1\n      0xa626d4f7\n      eq\n      tag_4\n      jumpi\n      dup1\n      0xad2e6fbb\n      eq\n      tag_5\n      jumpi\n    tag_2:\n      0x00\n      dup1\n      revert\n        /* \"Array2.sol\":720:1065  function testare() external ... */\n    tag_3:\n      tag_6\n      tag_7\n      jump\t// in\n    tag_6:\n      stop\n        /* \"Array2.sol\":374:394  uint[] public vector */\n    tag_4:\n      tag_8\n      0x04\n      dup1\n      calldatasize\n      sub\n      dup2\n      add\n      swap1\n      tag_9\n      swap2\n      swap1\n      tag_10\n      jump\t// in\n    tag_9:\n      tag_11\n      jump\t// in\n    tag_8:\n      mload(0x40)\n      tag_12\n      swap2\n      swap1\n      tag_13\n      jump\t// in\n    tag_12:\n      mload(0x40)\n      dup1\n      swap2\n      sub\n      swap1\n      return\n        /* \"Array2.sol\":403:712  function sterge(uint indexV) public ... */\n    tag_5:\n      tag_14\n      0x04\n      dup1\n      calldatasize\n      sub\n      dup2\n      add\n      swap1\n      tag_15\n      swap2\n      swap1\n      tag_10\n      jump\t// in\n    tag_15:\n      tag_16\n      jump\t// in\n    tag_14:\n      stop\n        /* \"Array2.sol\":720:1065  function testare() external ... */\n    tag_7:\n        /* \"Array2.sol\":765:789  vector = [1, 2, 3, 4, 5] */\n      mload(0x40)\n      dup1\n      0xa0\n      add\n      0x40\n      mstore\n      dup1\n        /* \"Array2.sol\":775:776  1 */\n      0x01\n        /* \"Array2.sol\":765:789  vector = [1, 2, 3, 4, 5] */\n      0xff\n      and\n      dup2\n      mstore\n      0x20\n      add\n        /* \"Array2.sol\":778:779  2 */\n      0x02\n        /* \"Array2.sol\":765:789  vector = [1, 2, 3, 4, 5] */\n      0xff\n      and\n      dup2\n      mstore\n      0x20\n      add\n        /* \"Array2.sol\":781:782  3 */\n      0x03\n        /* \"Array2.sol\":765:789  vector = [1, 2, 3, 4, 5] */\n      0xff\n      and\n      dup2\n      mstore\n      0x20\n      add\n        /* \"Array2.sol\":784:785  4 */\n      0x04\n        /* \"Array2.sol\":765:789  vector = [1, 2, 3, 4, 5] */\n      0xff\n      and\n      dup2\n      mstore\n      0x20\n      add\n        /* \"Array2.sol\":787:788  5 */\n      0x05\n        /* \"Array2.sol\":765:789  vector = [1, 2, 3, 4, 5] */\n      0xff\n      and\n      dup2\n      mstore\n      pop\n        /* \"Array2.sol\":765:771  vector */\n      0x00\n        /* \"Array2.sol\":765:789  vector = [1, 2, 3, 4, 5] */\n      swap1\n      0x05\n      tag_18\n      swap3\n      swap2\n      swap1\n      tag_19\n      jump\t// in\n    tag_18:\n      pop\n        /* \"Array2.sol\":839:840  1 */\n      0x01\n        /* \"Array2.sol\":826:832  vector */\n      0x00\n        /* \"Array2.sol\":833:834  0 */\n      dup1\n        /* \"Array2.sol\":826:835  vector[0] */\n      dup2\n      sload\n      dup2\n      lt\n      tag_20\n      jumpi\n      tag_21\n      tag_22\n      jump\t// in\n    tag_21:\n    tag_20:\n      swap1\n      0x00\n      mstore\n      keccak256(0x00, 0x20)\n      add\n      sload\n        /* \"Array2.sol\":826:840  vector[0] == 1 */\n      eq\n        /* \"Array2.sol\":819:841  assert(vector[0] == 1) */\n      tag_24\n      jumpi\n      tag_25\n      tag_26\n      jump\t// in\n    tag_25:\n    tag_24:\n        /* \"Array2.sol\":872:873  2 */\n      0x02\n        /* \"Array2.sol\":859:865  vector */\n      0x00\n        /* \"Array2.sol\":866:867  1 */\n      0x01\n        /* \"Array2.sol\":859:868  vector[1] */\n      dup2\n      sload\n      dup2\n      lt\n      tag_27\n      jumpi\n      tag_28\n      tag_22\n      jump\t// in\n    tag_28:\n    tag_27:\n      swap1\n      0x00\n      mstore\n      keccak256(0x00, 0x20)\n      add\n      sload\n        /* \"Array2.sol\":859:873  vector[1] == 2 */\n      eq\n        /* \"Array2.sol\":852:874  assert(vector[1] == 2) */\n      tag_30\n      jumpi\n      tag_31\n      tag_26\n      jump\t// in\n    tag_31:\n    tag_30:\n        /* \"Array2.sol\":905:906  4 */\n      0x04\n        /* \"Array2.sol\":892:898  vector */\n      0x00\n        /* \"Array2.sol\":899:900  2 */\n      0x02\n        /* \"Array2.sol\":892:901  vector[2] */\n      dup2\n      sload\n      dup2\n      lt\n      tag_32\n      jumpi\n      tag_33\n      tag_22\n      jump\t// in\n    tag_33:\n    tag_32:\n      swap1\n      0x00\n      mstore\n      keccak256(0x00, 0x20)\n      add\n      sload\n        /* \"Array2.sol\":892:906  vector[2] == 4 */\n      eq\n        /* \"Array2.sol\":885:907  assert(vector[2] == 4) */\n      tag_35\n      jumpi\n      tag_36\n      tag_26\n      jump\t// in\n    tag_36:\n    tag_35:\n        /* \"Array2.sol\":938:939  5 */\n      0x05\n        /* \"Array2.sol\":925:931  vector */\n      0x00\n        /* \"Array2.sol\":932:933  3 */\n      0x03\n        /* \"Array2.sol\":925:934  vector[3] */\n      dup2\n      sload\n      dup2\n      lt\n      tag_37\n      jumpi\n      tag_38\n      tag_22\n      jump\t// in\n    tag_38:\n    tag_37:\n      swap1\n      0x00\n      mstore\n      keccak256(0x00, 0x20)\n      add\n      sload\n        /* \"Array2.sol\":925:939  vector[3] == 5 */\n      eq\n        /* \"Array2.sol\":918:940  assert(vector[3] == 5) */\n      tag_40\n      jumpi\n      tag_41\n      tag_26\n      jump\t// in\n    tag_41:\n    tag_40:\n        /* \"Array2.sol\":975:976  4 */\n      0x04\n        /* \"Array2.sol\":958:964  vector */\n      0x00\n        /* \"Array2.sol\":958:971  vector.length */\n      dup1\n      sload\n      swap1\n      pop\n        /* \"Array2.sol\":958:976  vector.length == 4 */\n      eq\n        /* \"Array2.sol\":951:977  assert(vector.length == 4) */\n      tag_42\n      jumpi\n      tag_43\n      tag_26\n      jump\t// in\n    tag_43:\n    tag_42:\n        /* \"Array2.sol\":990:1002  vector = [1] */\n      mload(0x40)\n      dup1\n      0x20\n      add\n      0x40\n      mstore\n      dup1\n        /* \"Array2.sol\":1000:1001  1 */\n      0x01\n        /* \"Array2.sol\":990:1002  vector = [1] */\n      0xff\n      and\n      dup2\n      mstore\n      pop\n        /* \"Array2.sol\":990:996  vector */\n      0x00\n        /* \"Array2.sol\":990:1002  vector = [1] */\n      swap1\n      0x01\n      tag_44\n      swap3\n      swap2\n      swap1\n      tag_45\n      jump\t// in\n    tag_44:\n      pop\n        /* \"Array2.sol\":1055:1056  0 */\n      0x00\n        /* \"Array2.sol\":1038:1044  vector */\n      dup1\n        /* \"Array2.sol\":1038:1051  vector.length */\n      dup1\n      sload\n      swap1\n      pop\n        /* \"Array2.sol\":1038:1056  vector.length == 0 */\n      eq\n        /* \"Array2.sol\":1031:1057  assert(vector.length == 0) */\n      tag_46\n      jumpi\n      tag_47\n      tag_26\n      jump\t// in\n    tag_47:\n    tag_46:\n        /* \"Array2.sol\":720:1065  function testare() external ... */\n      jump\t// out\n        /* \"Array2.sol\":374:394  uint[] public vector */\n    tag_11:\n      0x00\n      dup2\n      dup2\n      sload\n      dup2\n      lt\n      tag_48\n      jumpi\n      0x00\n      dup1\n      revert\n    tag_48:\n      swap1\n      0x00\n      mstore\n      keccak256(0x00, 0x20)\n      add\n      0x00\n      swap2\n      pop\n      swap1\n      pop\n      sload\n      dup2\n      jump\t// out\n        /* \"Array2.sol\":403:712  function sterge(uint indexV) public ... */\n    tag_16:\n        /* \"Array2.sol\":473:479  vector */\n      0x00\n        /* \"Array2.sol\":473:486  vector.length */\n      dup1\n      sload\n      swap1\n      pop\n        /* \"Array2.sol\":464:470  indexV */\n      dup2\n        /* \"Array2.sol\":464:486  indexV < vector.length */\n      lt\n        /* \"Array2.sol\":456:525  require(indexV < vector.length, \"indexul se afla in afara limitelor\") */\n      tag_51\n      jumpi\n      mload(0x40)\n      0x08c379a000000000000000000000000000000000000000000000000000000000\n      dup2\n      mstore\n      0x04\n      add\n      tag_52\n      swap1\n      tag_53\n      jump\t// in\n    tag_52:\n      mload(0x40)\n      dup1\n      swap2\n      sub\n      swap1\n      revert\n    tag_51:\n        /* \"Array2.sol\":543:551  uint poz */\n      0x00\n        /* \"Array2.sol\":554:560  indexV */\n      dup2\n        /* \"Array2.sol\":543:560  uint poz = indexV */\n      swap1\n      pop\n        /* \"Array2.sol\":538:660  for (uint poz = indexV; poz < vector.length - 1; poz++) ... */\n    tag_54:\n        /* \"Array2.sol\":584:585  1 */\n      0x01\n        /* \"Array2.sol\":568:574  vector */\n      0x00\n        /* \"Array2.sol\":568:581  vector.length */\n      dup1\n      sload\n      swap1\n      pop\n        /* \"Array2.sol\":568:585  vector.length - 1 */\n      tag_57\n      swap2\n      swap1\n      tag_58\n      jump\t// in\n    tag_57:\n        /* \"Array2.sol\":562:565  poz */\n      dup2\n        /* \"Array2.sol\":562:585  poz < vector.length - 1 */\n      lt\n        /* \"Array2.sol\":538:660  for (uint poz = indexV; poz < vector.length - 1; poz++) ... */\n      iszero\n      tag_55\n      jumpi\n        /* \"Array2.sol\":633:639  vector */\n      0x00\n        /* \"Array2.sol\":646:647  1 */\n      0x01\n        /* \"Array2.sol\":640:643  poz */\n      dup3\n        /* \"Array2.sol\":640:647  poz + 1 */\n      tag_59\n      swap2\n      swap1\n      tag_60\n      jump\t// in\n    tag_59:\n        /* \"Array2.sol\":633:648  vector[poz + 1] */\n      dup2\n      sload\n      dup2\n      lt\n      tag_61\n      jumpi\n      tag_62\n      tag_22\n      jump\t// in\n    tag_62:\n    tag_61:\n      swap1\n      0x00\n      mstore\n      keccak256(0x00, 0x20)\n      add\n      sload\n        /* \"Array2.sol\":619:625  vector */\n      0x00\n        /* \"Array2.sol\":626:629  poz */\n      dup3\n        /* \"Array2.sol\":619:630  vector[poz] */\n      dup2\n      sload\n      dup2\n      lt\n      tag_64\n      jumpi\n      tag_65\n      tag_22\n      jump\t// in\n    tag_65:\n    tag_64:\n      swap1\n      0x00\n      mstore\n      keccak256(0x00, 0x20)\n      add\n        /* \"Array2.sol\":619:648  vector[poz] = vector[poz + 1] */\n      dup2\n      swap1\n      sstore\n      pop\n        /* \"Array2.sol\":587:592  poz++ */\n      dup1\n      dup1\n      tag_67\n      swap1\n      tag_68\n      jump\t// in\n    tag_67:\n      swap2\n      pop\n      pop\n        /* \"Array2.sol\":538:660  for (uint poz = indexV; poz < vector.length - 1; poz++) ... */\n      jump(tag_54)\n    tag_55:\n      pop\n        /* \"Array2.sol\":692:698  vector */\n      0x00\n        /* \"Array2.sol\":692:704  vector.pop() */\n      dup1\n      sload\n      dup1\n      tag_69\n      jumpi\n      tag_70\n      tag_71\n      jump\t// in\n    tag_70:\n    tag_69:\n      0x01\n      swap1\n      sub\n      dup2\n      dup2\n      swap1\n      0x00\n      mstore\n      keccak256(0x00, 0x20)\n      add\n      0x00\n      swap1\n      sstore\n      swap1\n      sstore\n        /* \"Array2.sol\":403:712  function sterge(uint indexV) public ... */\n      pop\n      jump\t// out\n    tag_19:\n      dup3\n      dup1\n      sload\n      dup3\n      dup3\n      sstore\n      swap1\n      0x00\n      mstore\n      keccak256(0x00, 0x20)\n      swap1\n      dup2\n      add\n      swap3\n      dup3\n      iszero\n      tag_73\n      jumpi\n      swap2\n      0x20\n      mul\n      dup3\n      add\n    tag_74:\n      dup3\n      dup2\n      gt\n      iszero\n      tag_75\n      jumpi\n      dup3\n      mload\n      dup3\n      swap1\n      0xff\n      and\n      swap1\n      sstore\n      swap2\n      0x20\n      add\n      swap2\n      swap1\n      0x01\n      add\n      swap1\n      jump(tag_74)\n    tag_75:\n    tag_73:\n      pop\n      swap1\n      pop\n      tag_76\n      swap2\n      swap1\n      tag_77\n      jump\t// in\n    tag_76:\n      pop\n      swap1\n      jump\t// out\n    tag_45:\n      dup3\n      dup1\n      sload\n      dup3\n      dup3\n      sstore\n      swap1\n      0x00\n      mstore\n      keccak256(0x00, 0x20)\n      swap1\n      dup2\n      add\n      swap3\n      dup3\n      iszero\n      tag_78\n      jumpi\n      swap2\n      0x20\n      mul\n      dup3\n      add\n    tag_79:\n      dup3\n      dup2\n      gt\n      iszero\n      tag_80\n      jumpi\n      dup3\n      mload\n      dup3\n      swap1\n      0xff\n      and\n      swap1\n      sstore\n      swap2\n      0x20\n      add\n      swap2\n      swap1\n      0x01\n      add\n      swap1\n      jump(tag_79)\n    tag_80:\n    tag_78:\n      pop\n      swap1\n      pop\n      tag_81\n      swap2\n      swap1\n      tag_77\n      jump\t// in\n    tag_81:\n      pop\n      swap1\n      jump\t// out\n    tag_77:\n    tag_82:\n      dup1\n      dup3\n      gt\n      iszero\n      tag_83\n      jumpi\n      0x00\n      dup2\n      0x00\n      swap1\n      sstore\n      pop\n      0x01\n      add\n      jump(tag_82)\n    tag_83:\n      pop\n      swap1\n      jump\t// out\n        /* \"#utility.yul\":88:205   */\n    tag_85:\n        /* \"#utility.yul\":197:198   */\n      0x00\n        /* \"#utility.yul\":194:195   */\n      dup1\n        /* \"#utility.yul\":187:199   */\n      revert\n        /* \"#utility.yul\":334:411   */\n    tag_87:\n        /* \"#utility.yul\":371:378   */\n      0x00\n        /* \"#utility.yul\":400:405   */\n      dup2\n        /* \"#utility.yul\":389:405   */\n      swap1\n      pop\n        /* \"#utility.yul\":334:411   */\n      swap2\n      swap1\n      pop\n      jump\t// out\n        /* \"#utility.yul\":417:539   */\n    tag_88:\n        /* \"#utility.yul\":490:514   */\n      tag_101\n        /* \"#utility.yul\":508:513   */\n      dup2\n        /* \"#utility.yul\":490:514   */\n      tag_87\n      jump\t// in\n    tag_101:\n        /* \"#utility.yul\":483:488   */\n      dup2\n        /* \"#utility.yul\":480:515   */\n      eq\n        /* \"#utility.yul\":470:533   */\n      tag_102\n      jumpi\n        /* \"#utility.yul\":529:530   */\n      0x00\n        /* \"#utility.yul\":526:527   */\n      dup1\n        /* \"#utility.yul\":519:531   */\n      revert\n        /* \"#utility.yul\":470:533   */\n    tag_102:\n        /* \"#utility.yul\":417:539   */\n      pop\n      jump\t// out\n        /* \"#utility.yul\":545:684   */\n    tag_89:\n        /* \"#utility.yul\":591:596   */\n      0x00\n        /* \"#utility.yul\":629:635   */\n      dup2\n        /* \"#utility.yul\":616:636   */\n      calldataload\n        /* \"#utility.yul\":607:636   */\n      swap1\n      pop\n        /* \"#utility.yul\":645:678   */\n      tag_104\n        /* \"#utility.yul\":672:677   */\n      dup2\n        /* \"#utility.yul\":645:678   */\n      tag_88\n      jump\t// in\n    tag_104:\n        /* \"#utility.yul\":545:684   */\n      swap3\n      swap2\n      pop\n      pop\n      jump\t// out\n        /* \"#utility.yul\":690:1019   */\n    tag_10:\n        /* \"#utility.yul\":749:755   */\n      0x00\n        /* \"#utility.yul\":798:800   */\n      0x20\n        /* \"#utility.yul\":786:795   */\n      dup3\n        /* \"#utility.yul\":777:784   */\n      dup5\n        /* \"#utility.yul\":773:796   */\n      sub\n        /* \"#utility.yul\":769:801   */\n      slt\n        /* \"#utility.yul\":766:885   */\n      iszero\n      tag_106\n      jumpi\n        /* \"#utility.yul\":804:883   */\n      tag_107\n      tag_85\n      jump\t// in\n    tag_107:\n        /* \"#utility.yul\":766:885   */\n    tag_106:\n        /* \"#utility.yul\":924:925   */\n      0x00\n        /* \"#utility.yul\":949:1002   */\n      tag_108\n        /* \"#utility.yul\":994:1001   */\n      dup5\n        /* \"#utility.yul\":985:991   */\n      dup3\n        /* \"#utility.yul\":974:983   */\n      dup6\n        /* \"#utility.yul\":970:992   */\n      add\n        /* \"#utility.yul\":949:1002   */\n      tag_89\n      jump\t// in\n    tag_108:\n        /* \"#utility.yul\":939:1002   */\n      swap2\n      pop\n        /* \"#utility.yul\":895:1012   */\n      pop\n        /* \"#utility.yul\":690:1019   */\n      swap3\n      swap2\n      pop\n      pop\n      jump\t// out\n        /* \"#utility.yul\":1025:1143   */\n    tag_90:\n        /* \"#utility.yul\":1112:1136   */\n      tag_110\n        /* \"#utility.yul\":1130:1135   */\n      dup2\n        /* \"#utility.yul\":1112:1136   */\n      tag_87\n      jump\t// in\n    tag_110:\n        /* \"#utility.yul\":1107:1110   */\n      dup3\n        /* \"#utility.yul\":1100:1137   */\n      mstore\n        /* \"#utility.yul\":1025:1143   */\n      pop\n      pop\n      jump\t// out\n        /* \"#utility.yul\":1149:1371   */\n    tag_13:\n        /* \"#utility.yul\":1242:1246   */\n      0x00\n        /* \"#utility.yul\":1280:1282   */\n      0x20\n        /* \"#utility.yul\":1269:1278   */\n      dup3\n        /* \"#utility.yul\":1265:1283   */\n      add\n        /* \"#utility.yul\":1257:1283   */\n      swap1\n      pop\n        /* \"#utility.yul\":1293:1364   */\n      tag_112\n        /* \"#utility.yul\":1361:1362   */\n      0x00\n        /* \"#utility.yul\":1350:1359   */\n      dup4\n        /* \"#utility.yul\":1346:1363   */\n      add\n        /* \"#utility.yul\":1337:1343   */\n      dup5\n        /* \"#utility.yul\":1293:1364   */\n      tag_90\n      jump\t// in\n    tag_112:\n        /* \"#utility.yul\":1149:1371   */\n      swap3\n      swap2\n      pop\n      pop\n      jump\t// out\n        /* \"#utility.yul\":1377:1557   */\n    tag_22:\n        /* \"#utility.yul\":1425:1502   */\n      0x4e487b7100000000000000000000000000000000000000000000000000000000\n        /* \"#utility.yul\":1422:1423   */\n      0x00\n        /* \"#utility.yul\":1415:1503   */\n      mstore\n        /* \"#utility.yul\":1522:1526   */\n      0x32\n        /* \"#utility.yul\":1519:1520   */\n      0x04\n        /* \"#utility.yul\":1512:1527   */\n      mstore\n        /* \"#utility.yul\":1546:1550   */\n      0x24\n        /* \"#utility.yul\":1543:1544   */\n      0x00\n        /* \"#utility.yul\":1536:1551   */\n      revert\n        /* \"#utility.yul\":1563:1743   */\n    tag_26:\n        /* \"#utility.yul\":1611:1688   */\n      0x4e487b7100000000000000000000000000000000000000000000000000000000\n        /* \"#utility.yul\":1608:1609   */\n      0x00\n        /* \"#utility.yul\":1601:1689   */\n      mstore\n        /* \"#utility.yul\":1708:1712   */\n      0x01\n        /* \"#utility.yul\":1705:1706   */\n      0x04\n        /* \"#utility.yul\":1698:1713   */\n      mstore\n        /* \"#utility.yul\":1732:1736   */\n      0x24\n        /* \"#utility.yul\":1729:1730   */\n      0x00\n        /* \"#utility.yul\":1722:1737   */\n      revert\n        /* \"#utility.yul\":1749:1918   */\n    tag_91:\n        /* \"#utility.yul\":1833:1844   */\n      0x00\n        /* \"#utility.yul\":1867:1873   */\n      dup3\n        /* \"#utility.yul\":1862:1865   */\n      dup3\n        /* \"#utility.yul\":1855:1874   */\n      mstore\n        /* \"#utility.yul\":1907:1911   */\n      0x20\n        /* \"#utility.yul\":1902:1905   */\n      dup3\n        /* \"#utility.yul\":1898:1912   */\n      add\n        /* \"#utility.yul\":1883:1912   */\n      swap1\n      pop\n        /* \"#utility.yul\":1749:1918   */\n      swap3\n      swap2\n      pop\n      pop\n      jump\t// out\n        /* \"#utility.yul\":1924:2145   */\n    tag_92:\n        /* \"#utility.yul\":2064:2098   */\n      0x696e646578756c2073652061666c6120696e206166617261206c696d6974656c\n        /* \"#utility.yul\":2060:2061   */\n      0x00\n        /* \"#utility.yul\":2052:2058   */\n      dup3\n        /* \"#utility.yul\":2048:2062   */\n      add\n        /* \"#utility.yul\":2041:2099   */\n      mstore\n        /* \"#utility.yul\":2133:2137   */\n      0x6f72000000000000000000000000000000000000000000000000000000000000\n        /* \"#utility.yul\":2128:2130   */\n      0x20\n        /* \"#utility.yul\":2120:2126   */\n      dup3\n        /* \"#utility.yul\":2116:2131   */\n      add\n        /* \"#utility.yul\":2109:2138   */\n      mstore\n        /* \"#utility.yul\":1924:2145   */\n      pop\n      jump\t// out\n        /* \"#utility.yul\":2151:2517   */\n    tag_93:\n        /* \"#utility.yul\":2293:2296   */\n      0x00\n        /* \"#utility.yul\":2314:2381   */\n      tag_118\n        /* \"#utility.yul\":2378:2380   */\n      0x22\n        /* \"#utility.yul\":2373:2376   */\n      dup4\n        /* \"#utility.yul\":2314:2381   */\n      tag_91\n      jump\t// in\n    tag_118:\n        /* \"#utility.yul\":2307:2381   */\n      swap2\n      pop\n        /* \"#utility.yul\":2390:2483   */\n      tag_119\n        /* \"#utility.yul\":2479:2482   */\n      dup3\n        /* \"#utility.yul\":2390:2483   */\n      tag_92\n      jump\t// in\n    tag_119:\n        /* \"#utility.yul\":2508:2510   */\n      0x40\n        /* \"#utility.yul\":2503:2506   */\n      dup3\n        /* \"#utility.yul\":2499:2511   */\n      add\n        /* \"#utility.yul\":2492:2511   */\n      swap1\n      pop\n        /* \"#utility.yul\":2151:2517   */\n      swap2\n      swap1\n      pop\n      jump\t// out\n        /* \"#utility.yul\":2523:2942   */\n    tag_53:\n        /* \"#utility.yul\":2689:2693   */\n      0x00\n        /* \"#utility.yul\":2727:2729   */\n      0x20\n        /* \"#utility.yul\":2716:2725   */\n      dup3\n        /* \"#utility.yul\":2712:2730   */\n      add\n        /* \"#utility.yul\":2704:2730   */\n      swap1\n      pop\n        /* \"#utility.yul\":2776:2785   */\n      dup2\n        /* \"#utility.yul\":2770:2774   */\n      dup2\n        /* \"#utility.yul\":2766:2786   */\n      sub\n        /* \"#utility.yul\":2762:2763   */\n      0x00\n        /* \"#utility.yul\":2751:2760   */\n      dup4\n        /* \"#utility.yul\":2747:2764   */\n      add\n        /* \"#utility.yul\":2740:2787   */\n      mstore\n        /* \"#utility.yul\":2804:2935   */\n      tag_121\n        /* \"#utility.yul\":2930:2934   */\n      dup2\n        /* \"#utility.yul\":2804:2935   */\n      tag_93\n      jump\t// in\n    tag_121:\n        /* \"#utility.yul\":2796:2935   */\n      swap1\n      pop\n        /* \"#utility.yul\":2523:2942   */\n      swap2\n      swap1\n      pop\n      jump\t// out\n        /* \"#utility.yul\":2948:3128   */\n    tag_94:\n        /* \"#utility.yul\":2996:3073   */\n      0x4e487b7100000000000000000000000000000000000000000000000000000000\n        /* \"#utility.yul\":2993:2994   */\n      0x00\n        /* \"#utility.yul\":2986:3074   */\n      mstore\n        /* \"#utility.yul\":3093:3097   */\n      0x11\n        /* \"#utility.yul\":3090:3091   */\n      0x04\n        /* \"#utility.yul\":3083:3098   */\n      mstore\n        /* \"#utility.yul\":3117:3121   */\n      0x24\n        /* \"#utility.yul\":3114:3115   */\n      0x00\n        /* \"#utility.yul\":3107:3122   */\n      revert\n        /* \"#utility.yul\":3134:3328   */\n    tag_58:\n        /* \"#utility.yul\":3174:3178   */\n      0x00\n        /* \"#utility.yul\":3194:3214   */\n      tag_124\n        /* \"#utility.yul\":3212:3213   */\n      dup3\n        /* \"#utility.yul\":3194:3214   */\n      tag_87\n      jump\t// in\n    tag_124:\n        /* \"#utility.yul\":3189:3214   */\n      swap2\n      pop\n        /* \"#utility.yul\":3228:3248   */\n      tag_125\n        /* \"#utility.yul\":3246:3247   */\n      dup4\n        /* \"#utility.yul\":3228:3248   */\n      tag_87\n      jump\t// in\n    tag_125:\n        /* \"#utility.yul\":3223:3248   */\n      swap3\n      pop\n        /* \"#utility.yul\":3272:3273   */\n      dup3\n        /* \"#utility.yul\":3269:3270   */\n      dup3\n        /* \"#utility.yul\":3265:3274   */\n      sub\n        /* \"#utility.yul\":3257:3274   */\n      swap1\n      pop\n        /* \"#utility.yul\":3296:3297   */\n      dup2\n        /* \"#utility.yul\":3290:3294   */\n      dup2\n        /* \"#utility.yul\":3287:3298   */\n      gt\n        /* \"#utility.yul\":3284:3321   */\n      iszero\n      tag_126\n      jumpi\n        /* \"#utility.yul\":3301:3319   */\n      tag_127\n      tag_94\n      jump\t// in\n    tag_127:\n        /* \"#utility.yul\":3284:3321   */\n    tag_126:\n        /* \"#utility.yul\":3134:3328   */\n      swap3\n      swap2\n      pop\n      pop\n      jump\t// out\n        /* \"#utility.yul\":3334:3525   */\n    tag_60:\n        /* \"#utility.yul\":3374:3377   */\n      0x00\n        /* \"#utility.yul\":3393:3413   */\n      tag_129\n        /* \"#utility.yul\":3411:3412   */\n      dup3\n        /* \"#utility.yul\":3393:3413   */\n      tag_87\n      jump\t// in\n    tag_129:\n        /* \"#utility.yul\":3388:3413   */\n      swap2\n      pop\n        /* \"#utility.yul\":3427:3447   */\n      tag_130\n        /* \"#utility.yul\":3445:3446   */\n      dup4\n        /* \"#utility.yul\":3427:3447   */\n      tag_87\n      jump\t// in\n    tag_130:\n        /* \"#utility.yul\":3422:3447   */\n      swap3\n      pop\n        /* \"#utility.yul\":3470:3471   */\n      dup3\n        /* \"#utility.yul\":3467:3468   */\n      dup3\n        /* \"#utility.yul\":3463:3472   */\n      add\n        /* \"#utility.yul\":3456:3472   */\n      swap1\n      pop\n        /* \"#utility.yul\":3491:3494   */\n      dup1\n        /* \"#utility.yul\":3488:3489   */\n      dup3\n        /* \"#utility.yul\":3485:3495   */\n      gt\n        /* \"#utility.yul\":3482:3518   */\n      iszero\n      tag_131\n      jumpi\n        /* \"#utility.yul\":3498:3516   */\n      tag_132\n      tag_94\n      jump\t// in\n    tag_132:\n        /* \"#utility.yul\":3482:3518   */\n    tag_131:\n        /* \"#utility.yul\":3334:3525   */\n      swap3\n      swap2\n      pop\n      pop\n      jump\t// out\n        /* \"#utility.yul\":3531:3764   */\n    tag_68:\n        /* \"#utility.yul\":3570:3573   */\n      0x00\n        /* \"#utility.yul\":3593:3617   */\n      tag_134\n        /* \"#utility.yul\":3611:3616   */\n      dup3\n        /* \"#utility.yul\":3593:3617   */\n      tag_87\n      jump\t// in\n    tag_134:\n        /* \"#utility.yul\":3584:3617   */\n      swap2\n      pop\n        /* \"#utility.yul\":3639:3705   */\n      0xffffffffffffffffffffffffffffffffffffffffffffffffffffffffffffffff\n        /* \"#utility.yul\":3632:3637   */\n      dup3\n        /* \"#utility.yul\":3629:3706   */\n      sub\n        /* \"#utility.yul\":3626:3729   */\n      tag_135\n      jumpi\n        /* \"#utility.yul\":3709:3727   */\n      tag_136\n      tag_94\n      jump\t// in\n    tag_136:\n        /* \"#utility.yul\":3626:3729   */\n    tag_135:\n        /* \"#utility.yul\":3756:3757   */\n      0x01\n        /* \"#utility.yul\":3749:3754   */\n      dup3\n        /* \"#utility.yul\":3745:3758   */\n      add\n        /* \"#utility.yul\":3738:3758   */\n      swap1\n      pop\n        /* \"#utility.yul\":3531:3764   */\n      swap2\n      swap1\n      pop\n      jump\t// out\n        /* \"#utility.yul\":3770:3950   */\n    tag_71:\n        /* \"#utility.yul\":3818:3895   */\n      0x4e487b7100000000000000000000000000000000000000000000000000000000\n        /* \"#utility.yul\":3815:3816   */\n      0x00\n        /* \"#utility.yul\":3808:3896   */\n      mstore\n        /* \"#utility.yul\":3915:3919   */\n      0x31\n        /* \"#utility.yul\":3912:3913   */\n      0x04\n        /* \"#utility.yul\":3905:3920   */\n      mstore\n        /* \"#utility.yul\":3939:3943   */\n      0x24\n        /* \"#utility.yul\":3936:3937   */\n      0x00\n        /* \"#utility.yul\":3929:3944   */\n      revert\n\n    auxdata: 0xa2646970667358221220d0ae4d8ba579d69710c5324d552cd59666206e64f339562eeb2bc135ae606e2164736f6c63430008120033\n}\n",
				"bytecode": {
					"linkReferences": {},
					"object": "608060405234801561001057600080fd5b506106a6806100206000396000f3fe608060405234801561001057600080fd5b50600436106100415760003560e01c80637c34433414610046578063a626d4f714610050578063ad2e6fbb14610080575b600080fd5b61004e61009c565b005b61006a6004803603810190610065919061040a565b6101f8565b6040516100779190610446565b60405180910390f35b61009a6004803603810190610095919061040a565b61021c565b005b6040518060a00160405280600160ff168152602001600260ff168152602001600360ff168152602001600460ff168152602001600560ff1681525060009060056100e792919061030e565b506001600080815481106100fe576100fd610461565b5b90600052602060002001541461011757610116610490565b5b6002600060018154811061012e5761012d610461565b5b90600052602060002001541461014757610146610490565b5b6004600060028154811061015e5761015d610461565b5b90600052602060002001541461017757610176610490565b5b6005600060038154811061018e5761018d610461565b5b9060005260206000200154146101a7576101a6610490565b5b6004600080549050146101bd576101bc610490565b5b6040518060200160405280600160ff1681525060009060016101e0929190610360565b5060008080549050146101f6576101f5610490565b5b565b6000818154811061020857600080fd5b906000526020600020016000915090505481565b6000805490508110610263576040517f08c379a000000000000000000000000000000000000000000000000000000000815260040161025a90610542565b60405180910390fd5b60008190505b600160008054905061027b9190610591565b8110156102e257600060018261029191906105c5565b815481106102a2576102a1610461565b5b9060005260206000200154600082815481106102c1576102c0610461565b5b906000526020600020018190555080806102da906105f9565b915050610269565b5060008054806102f5576102f4610641565b5b6001900381819060005260206000200160009055905550565b82805482825590600052602060002090810192821561034f579160200282015b8281111561034e578251829060ff1690559160200191906001019061032e565b5b50905061035c91906103b2565b5090565b8280548282559060005260206000209081019282156103a1579160200282015b828111156103a0578251829060ff16905591602001919060010190610380565b5b5090506103ae91906103b2565b5090565b5b808211156103cb5760008160009055506001016103b3565b5090565b600080fd5b6000819050919050565b6103e7816103d4565b81146103f257600080fd5b50565b600081359050610404816103de565b92915050565b6000602082840312156104205761041f6103cf565b5b600061042e848285016103f5565b91505092915050565b610440816103d4565b82525050565b600060208201905061045b6000830184610437565b92915050565b7f4e487b7100000000000000000000000000000000000000000000000000000000600052603260045260246000fd5b7f4e487b7100000000000000000000000000000000000000000000000000000000600052600160045260246000fd5b600082825260208201905092915050565b7f696e646578756c2073652061666c6120696e206166617261206c696d6974656c60008201527f6f72000000000000000000000000000000000000000000000000000000000000602082015250565b600061052c6022836104bf565b9150610537826104d0565b604082019050919050565b6000602082019050818103600083015261055b8161051f565b9050919050565b7f4e487b7100000000000000000000000000000000000000000000000000000000600052601160045260246000fd5b600061059c826103d4565b91506105a7836103d4565b92508282039050818111156105bf576105be610562565b5b92915050565b60006105d0826103d4565b91506105db836103d4565b92508282019050808211156105f3576105f2610562565b5b92915050565b6000610604826103d4565b91507fffffffffffffffffffffffffffffffffffffffffffffffffffffffffffffffff820361063657610635610562565b5b600182019050919050565b7f4e487b7100000000000000000000000000000000000000000000000000000000600052603160045260246000fdfea2646970667358221220d0ae4d8ba579d69710c5324d552cd59666206e64f339562eeb2bc135ae606e2164736f6c63430008120033",
					"opcodes": "PUSH1 0x80 PUSH1 0x40 MSTORE CALLVALUE DUP1 ISZERO PUSH2 0x10 JUMPI PUSH1 0x0 DUP1 REVERT JUMPDEST POP PUSH2 0x6A6 DUP1 PUSH2 0x20 PUSH1 0x0 CODECOPY PUSH1 0x0 RETURN INVALID PUSH1 0x80 PUSH1 0x40 MSTORE CALLVALUE DUP1 ISZERO PUSH2 0x10 JUMPI PUSH1 0x0 DUP1 REVERT JUMPDEST POP PUSH1 0x4 CALLDATASIZE LT PUSH2 0x41 JUMPI PUSH1 0x0 CALLDATALOAD PUSH1 0xE0 SHR DUP1 PUSH4 0x7C344334 EQ PUSH2 0x46 JUMPI DUP1 PUSH4 0xA626D4F7 EQ PUSH2 0x50 JUMPI DUP1 PUSH4 0xAD2E6FBB EQ PUSH2 0x80 JUMPI JUMPDEST PUSH1 0x0 DUP1 REVERT JUMPDEST PUSH2 0x4E PUSH2 0x9C JUMP JUMPDEST STOP JUMPDEST PUSH2 0x6A PUSH1 0x4 DUP1 CALLDATASIZE SUB DUP2 ADD SWAP1 PUSH2 0x65 SWAP2 SWAP1 PUSH2 0x40A JUMP JUMPDEST PUSH2 0x1F8 JUMP JUMPDEST PUSH1 0x40 MLOAD PUSH2 0x77 SWAP2 SWAP1 PUSH2 0x446 JUMP JUMPDEST PUSH1 0x40 MLOAD DUP1 SWAP2 SUB SWAP1 RETURN JUMPDEST PUSH2 0x9A PUSH1 0x4 DUP1 CALLDATASIZE SUB DUP2 ADD SWAP1 PUSH2 0x95 SWAP2 SWAP1 PUSH2 0x40A JUMP JUMPDEST PUSH2 0x21C JUMP JUMPDEST STOP JUMPDEST PUSH1 0x40 MLOAD DUP1 PUSH1 0xA0 ADD PUSH1 0x40 MSTORE DUP1 PUSH1 0x1 PUSH1 0xFF AND DUP2 MSTORE PUSH1 0x20 ADD PUSH1 0x2 PUSH1 0xFF AND DUP2 MSTORE PUSH1 0x20 ADD PUSH1 0x3 PUSH1 0xFF AND DUP2 MSTORE PUSH1 0x20 ADD PUSH1 0x4 PUSH1 0xFF AND DUP2 MSTORE PUSH1 0x20 ADD PUSH1 0x5 PUSH1 0xFF AND DUP2 MSTORE POP PUSH1 0x0 SWAP1 PUSH1 0x5 PUSH2 0xE7 SWAP3 SWAP2 SWAP1 PUSH2 0x30E JUMP JUMPDEST POP PUSH1 0x1 PUSH1 0x0 DUP1 DUP2 SLOAD DUP2 LT PUSH2 0xFE JUMPI PUSH2 0xFD PUSH2 0x461 JUMP JUMPDEST JUMPDEST SWAP1 PUSH1 0x0 MSTORE PUSH1 0x20 PUSH1 0x0 KECCAK256 ADD SLOAD EQ PUSH2 0x117 JUMPI PUSH2 0x116 PUSH2 0x490 JUMP JUMPDEST JUMPDEST PUSH1 0x2 PUSH1 0x0 PUSH1 0x1 DUP2 SLOAD DUP2 LT PUSH2 0x12E JUMPI PUSH2 0x12D PUSH2 0x461 JUMP JUMPDEST JUMPDEST SWAP1 PUSH1 0x0 MSTORE PUSH1 0x20 PUSH1 0x0 KECCAK256 ADD SLOAD EQ PUSH2 0x147 JUMPI PUSH2 0x146 PUSH2 0x490 JUMP JUMPDEST JUMPDEST PUSH1 0x4 PUSH1 0x0 PUSH1 0x2 DUP2 SLOAD DUP2 LT PUSH2 0x15E JUMPI PUSH2 0x15D PUSH2 0x461 JUMP JUMPDEST JUMPDEST SWAP1 PUSH1 0x0 MSTORE PUSH1 0x20 PUSH1 0x0 KECCAK256 ADD SLOAD EQ PUSH2 0x177 JUMPI PUSH2 0x176 PUSH2 0x490 JUMP JUMPDEST JUMPDEST PUSH1 0x5 PUSH1 0x0 PUSH1 0x3 DUP2 SLOAD DUP2 LT PUSH2 0x18E JUMPI PUSH2 0x18D PUSH2 0x461 JUMP JUMPDEST JUMPDEST SWAP1 PUSH1 0x0 MSTORE PUSH1 0x20 PUSH1 0x0 KECCAK256 ADD SLOAD EQ PUSH2 0x1A7 JUMPI PUSH2 0x1A6 PUSH2 0x490 JUMP JUMPDEST JUMPDEST PUSH1 0x4 PUSH1 0x0 DUP1 SLOAD SWAP1 POP EQ PUSH2 0x1BD JUMPI PUSH2 0x1BC PUSH2 0x490 JUMP JUMPDEST JUMPDEST PUSH1 0x40 MLOAD DUP1 PUSH1 0x20 ADD PUSH1 0x40 MSTORE DUP1 PUSH1 0x1 PUSH1 0xFF AND DUP2 MSTORE POP PUSH1 0x0 SWAP1 PUSH1 0x1 PUSH2 0x1E0 SWAP3 SWAP2 SWAP1 PUSH2 0x360 JUMP JUMPDEST POP PUSH1 0x0 DUP1 DUP1 SLOAD SWAP1 POP EQ PUSH2 0x1F6 JUMPI PUSH2 0x1F5 PUSH2 0x490 JUMP JUMPDEST JUMPDEST JUMP JUMPDEST PUSH1 0x0 DUP2 DUP2 SLOAD DUP2 LT PUSH2 0x208 JUMPI PUSH1 0x0 DUP1 REVERT JUMPDEST SWAP1 PUSH1 0x0 MSTORE PUSH1 0x20 PUSH1 0x0 KECCAK256 ADD PUSH1 0x0 SWAP2 POP SWAP1 POP SLOAD DUP2 JUMP JUMPDEST PUSH1 0x0 DUP1 SLOAD SWAP1 POP DUP2 LT PUSH2 0x263 JUMPI PUSH1 0x40 MLOAD PUSH32 0x8C379A000000000000000000000000000000000000000000000000000000000 DUP2 MSTORE PUSH1 0x4 ADD PUSH2 0x25A SWAP1 PUSH2 0x542 JUMP JUMPDEST PUSH1 0x40 MLOAD DUP1 SWAP2 SUB SWAP1 REVERT JUMPDEST PUSH1 0x0 DUP2 SWAP1 POP JUMPDEST PUSH1 0x1 PUSH1 0x0 DUP1 SLOAD SWAP1 POP PUSH2 0x27B SWAP2 SWAP1 PUSH2 0x591 JUMP JUMPDEST DUP2 LT ISZERO PUSH2 0x2E2 JUMPI PUSH1 0x0 PUSH1 0x1 DUP3 PUSH2 0x291 SWAP2 SWAP1 PUSH2 0x5C5 JUMP JUMPDEST DUP2 SLOAD DUP2 LT PUSH2 0x2A2 JUMPI PUSH2 0x2A1 PUSH2 0x461 JUMP JUMPDEST JUMPDEST SWAP1 PUSH1 0x0 MSTORE PUSH1 0x20 PUSH1 0x0 KECCAK256 ADD SLOAD PUSH1 0x0 DUP3 DUP2 SLOAD DUP2 LT PUSH2 0x2C1 JUMPI PUSH2 0x2C0 PUSH2 0x461 JUMP JUMPDEST JUMPDEST SWAP1 PUSH1 0x0 MSTORE PUSH1 0x20 PUSH1 0x0 KECCAK256 ADD DUP2 SWAP1 SSTORE POP DUP1 DUP1 PUSH2 0x2DA SWAP1 PUSH2 0x5F9 JUMP JUMPDEST SWAP2 POP POP PUSH2 0x269 JUMP JUMPDEST POP PUSH1 0x0 DUP1 SLOAD DUP1 PUSH2 0x2F5 JUMPI PUSH2 0x2F4 PUSH2 0x641 JUMP JUMPDEST JUMPDEST PUSH1 0x1 SWAP1 SUB DUP2 DUP2 SWAP1 PUSH1 0x0 MSTORE PUSH1 0x20 PUSH1 0x0 KECCAK256 ADD PUSH1 0x0 SWAP1 SSTORE SWAP1 SSTORE POP JUMP JUMPDEST DUP3 DUP1 SLOAD DUP3 DUP3 SSTORE SWAP1 PUSH1 0x0 MSTORE PUSH1 0x20 PUSH1 0x0 KECCAK256 SWAP1 DUP2 ADD SWAP3 DUP3 ISZERO PUSH2 0x34F JUMPI SWAP2 PUSH1 0x20 MUL DUP3 ADD JUMPDEST DUP3 DUP2 GT ISZERO PUSH2 0x34E JUMPI DUP3 MLOAD DUP3 SWAP1 PUSH1 0xFF AND SWAP1 SSTORE SWAP2 PUSH1 0x20 ADD SWAP2 SWAP1 PUSH1 0x1 ADD SWAP1 PUSH2 0x32E JUMP JUMPDEST JUMPDEST POP SWAP1 POP PUSH2 0x35C SWAP2 SWAP1 PUSH2 0x3B2 JUMP JUMPDEST POP SWAP1 JUMP JUMPDEST DUP3 DUP1 SLOAD DUP3 DUP3 SSTORE SWAP1 PUSH1 0x0 MSTORE PUSH1 0x20 PUSH1 0x0 KECCAK256 SWAP1 DUP2 ADD SWAP3 DUP3 ISZERO PUSH2 0x3A1 JUMPI SWAP2 PUSH1 0x20 MUL DUP3 ADD JUMPDEST DUP3 DUP2 GT ISZERO PUSH2 0x3A0 JUMPI DUP3 MLOAD DUP3 SWAP1 PUSH1 0xFF AND SWAP1 SSTORE SWAP2 PUSH1 0x20 ADD SWAP2 SWAP1 PUSH1 0x1 ADD SWAP1 PUSH2 0x380 JUMP JUMPDEST JUMPDEST POP SWAP1 POP PUSH2 0x3AE SWAP2 SWAP1 PUSH2 0x3B2 JUMP JUMPDEST POP SWAP1 JUMP JUMPDEST JUMPDEST DUP1 DUP3 GT ISZERO PUSH2 0x3CB JUMPI PUSH1 0x0 DUP2 PUSH1 0x0 SWAP1 SSTORE POP PUSH1 0x1 ADD PUSH2 0x3B3 JUMP JUMPDEST POP SWAP1 JUMP JUMPDEST PUSH1 0x0 DUP1 REVERT JUMPDEST PUSH1 0x0 DUP2 SWAP1 POP SWAP2 SWAP1 POP JUMP JUMPDEST PUSH2 0x3E7 DUP2 PUSH2 0x3D4 JUMP JUMPDEST DUP2 EQ PUSH2 0x3F2 JUMPI PUSH1 0x0 DUP1 REVERT JUMPDEST POP JUMP JUMPDEST PUSH1 0x0 DUP2 CALLDATALOAD SWAP1 POP PUSH2 0x404 DUP2 PUSH2 0x3DE JUMP JUMPDEST SWAP3 SWAP2 POP POP JUMP JUMPDEST PUSH1 0x0 PUSH1 0x20 DUP3 DUP5 SUB SLT ISZERO PUSH2 0x420 JUMPI PUSH2 0x41F PUSH2 0x3CF JUMP JUMPDEST JUMPDEST PUSH1 0x0 PUSH2 0x42E DUP5 DUP3 DUP6 ADD PUSH2 0x3F5 JUMP JUMPDEST SWAP2 POP POP SWAP3 SWAP2 POP POP JUMP JUMPDEST PUSH2 0x440 DUP2 PUSH2 0x3D4 JUMP JUMPDEST DUP3 MSTORE POP POP JUMP JUMPDEST PUSH1 0x0 PUSH1 0x20 DUP3 ADD SWAP1 POP PUSH2 0x45B PUSH1 0x0 DUP4 ADD DUP5 PUSH2 0x437 JUMP JUMPDEST SWAP3 SWAP2 POP POP JUMP JUMPDEST PUSH32 0x4E487B7100000000000000000000000000000000000000000000000000000000 PUSH1 0x0 MSTORE PUSH1 0x32 PUSH1 0x4 MSTORE PUSH1 0x24 PUSH1 0x0 REVERT JUMPDEST PUSH32 0x4E487B7100000000000000000000000000000000000000000000000000000000 PUSH1 0x0 MSTORE PUSH1 0x1 PUSH1 0x4 MSTORE PUSH1 0x24 PUSH1 0x0 REVERT JUMPDEST PUSH1 0x0 DUP3 DUP3 MSTORE PUSH1 0x20 DUP3 ADD SWAP1 POP SWAP3 SWAP2 POP POP JUMP JUMPDEST PUSH32 0x696E646578756C2073652061666C6120696E206166617261206C696D6974656C PUSH1 0x0 DUP3 ADD MSTORE PUSH32 0x6F72000000000000000000000000000000000000000000000000000000000000 PUSH1 0x20 DUP3 ADD MSTORE POP JUMP JUMPDEST PUSH1 0x0 PUSH2 0x52C PUSH1 0x22 DUP4 PUSH2 0x4BF JUMP JUMPDEST SWAP2 POP PUSH2 0x537 DUP3 PUSH2 0x4D0 JUMP JUMPDEST PUSH1 0x40 DUP3 ADD SWAP1 POP SWAP2 SWAP1 POP JUMP JUMPDEST PUSH1 0x0 PUSH1 0x20 DUP3 ADD SWAP1 POP DUP2 DUP2 SUB PUSH1 0x0 DUP4 ADD MSTORE PUSH2 0x55B DUP2 PUSH2 0x51F JUMP JUMPDEST SWAP1 POP SWAP2 SWAP1 POP JUMP JUMPDEST PUSH32 0x4E487B7100000000000000000000000000000000000000000000000000000000 PUSH1 0x0 MSTORE PUSH1 0x11 PUSH1 0x4 MSTORE PUSH1 0x24 PUSH1 0x0 REVERT JUMPDEST PUSH1 0x0 PUSH2 0x59C DUP3 PUSH2 0x3D4 JUMP JUMPDEST SWAP2 POP PUSH2 0x5A7 DUP4 PUSH2 0x3D4 JUMP JUMPDEST SWAP3 POP DUP3 DUP3 SUB SWAP1 POP DUP2 DUP2 GT ISZERO PUSH2 0x5BF JUMPI PUSH2 0x5BE PUSH2 0x562 JUMP JUMPDEST JUMPDEST SWAP3 SWAP2 POP POP JUMP JUMPDEST PUSH1 0x0 PUSH2 0x5D0 DUP3 PUSH2 0x3D4 JUMP JUMPDEST SWAP2 POP PUSH2 0x5DB DUP4 PUSH2 0x3D4 JUMP JUMPDEST SWAP3 POP DUP3 DUP3 ADD SWAP1 POP DUP1 DUP3 GT ISZERO PUSH2 0x5F3 JUMPI PUSH2 0x5F2 PUSH2 0x562 JUMP JUMPDEST JUMPDEST SWAP3 SWAP2 POP POP JUMP JUMPDEST PUSH1 0x0 PUSH2 0x604 DUP3 PUSH2 0x3D4 JUMP JUMPDEST SWAP2 POP PUSH32 0xFFFFFFFFFFFFFFFFFFFFFFFFFFFFFFFFFFFFFFFFFFFFFFFFFFFFFFFFFFFFFFFF DUP3 SUB PUSH2 0x636 JUMPI PUSH2 0x635 PUSH2 0x562 JUMP JUMPDEST JUMPDEST PUSH1 0x1 DUP3 ADD SWAP1 POP SWAP2 SWAP1 POP JUMP JUMPDEST PUSH32 0x4E487B7100000000000000000000000000000000000000000000000000000000 PUSH1 0x0 MSTORE PUSH1 0x31 PUSH1 0x4 MSTORE PUSH1 0x24 PUSH1 0x0 REVERT INVALID LOG2 PUSH5 0x6970667358 0x22 SLT KECCAK256 0xD0 0xAE 0x4D DUP12 0xA5 PUSH26 0xD69710C5324D552CD59666206E64F339562EEB2BC135AE606E21 PUSH5 0x736F6C6343 STOP ADDMOD SLT STOP CALLER "
				},
				"gasEstimates": {
					"creation": {
						"codeDepositCost": "340400",
						"executionCost": "380",
						"totalCost": "340780"
					},
					"external": {
						"sterge(uint256)": "infinite",
						"testare()": "infinite",
						"vector(uint256)": "infinite"
					}
				},
				"methodIdentifiers": {
					"sterge(uint256)": "ad2e6fbb",
					"testare()": "7c344334",
					"vector(uint256)": "a626d4f7"
				}
			},
			"storageLayout": {
				"storage": [
					{
						"astId": 4,
						"contract": "Array2.sol:StergeElementVectorPrinShiftare",
						"label": "vector",
						"offset": 0,
						"slot": "0",
						"type": "t_array(t_uint256)dyn_storage"
					}
				],
				"types": {
					"t_array(t_uint256)dyn_storage": {
						"base": "t_uint256",
						"encoding": "dynamic_array",
						"label": "uint256[]",
						"numberOfBytes": "32"
					},
					"t_uint256": {
						"encoding": "inplace",
						"label": "uint256",
						"numberOfBytes": "32"
					}
				}
			},
			"userdoc": {
				"kind": "user",
				"methods": {},
				"version": 1
			}
		}
	}
}